{
  "_format": "hh-sol-artifact-1",
  "contractName": "TektonEscrow",
  "sourceName": "contracts/TektonEscrow.sol",
  "abi": [
    {
      "inputs": [
        {
          "internalType": "uint256",
          "name": "_minStake",
          "type": "uint256"
        },
        {
          "internalType": "uint256",
          "name": "_platformFeeBps",
          "type": "uint256"
        },
        {
          "internalType": "address",
          "name": "_feeRecipient",
          "type": "address"
        }
      ],
      "stateMutability": "nonpayable",
      "type": "constructor"
    },
    {
      "inputs": [
        {
          "internalType": "address",
          "name": "owner",
          "type": "address"
        }
      ],
      "name": "OwnableInvalidOwner",
      "type": "error"
    },
    {
      "inputs": [
        {
          "internalType": "address",
          "name": "account",
          "type": "address"
        }
      ],
      "name": "OwnableUnauthorizedAccount",
      "type": "error"
    },
    {
      "inputs": [],
      "name": "ReentrancyGuardReentrantCall",
      "type": "error"
    },
    {
      "inputs": [
        {
          "internalType": "address",
          "name": "token",
          "type": "address"
        }
      ],
      "name": "SafeERC20FailedOperation",
      "type": "error"
    },
    {
      "anonymous": false,
      "inputs": [
        {
          "indexed": true,
          "internalType": "uint256",
          "name": "offerId",
          "type": "uint256"
        }
      ],
      "name": "CancelFinalized",
      "type": "event"
    },
    {
      "anonymous": false,
      "inputs": [
        {
          "indexed": true,
          "internalType": "uint256",
          "name": "offerId",
          "type": "uint256"
        },
        {
          "indexed": false,
          "internalType": "uint256",
          "name": "cancelableAfter",
          "type": "uint256"
        }
      ],
      "name": "CancelRequested",
      "type": "event"
    },
    {
      "anonymous": false,
      "inputs": [
        {
          "indexed": false,
          "internalType": "address",
          "name": "oldRecipient",
          "type": "address"
        },
        {
          "indexed": false,
          "internalType": "address",
          "name": "newRecipient",
          "type": "address"
        }
      ],
      "name": "FeeRecipientUpdated",
      "type": "event"
    },
    {
      "anonymous": false,
      "inputs": [
        {
          "indexed": true,
          "internalType": "address",
          "name": "recipient",
          "type": "address"
        },
        {
          "indexed": false,
          "internalType": "uint256",
          "name": "amount",
          "type": "uint256"
        }
      ],
      "name": "FeesWithdrawn",
      "type": "event"
    },
    {
      "anonymous": false,
      "inputs": [
        {
          "indexed": false,
          "internalType": "uint256",
          "name": "oldStake",
          "type": "uint256"
        },
        {
          "indexed": false,
          "internalType": "uint256",
          "name": "newStake",
          "type": "uint256"
        }
      ],
      "name": "MinStakeUpdated",
      "type": "event"
    },
    {
      "anonymous": false,
      "inputs": [
        {
          "indexed": true,
          "internalType": "uint256",
          "name": "offerId",
          "type": "uint256"
        },
        {
          "indexed": true,
          "internalType": "address",
          "name": "maker",
          "type": "address"
        },
        {
          "indexed": false,
          "internalType": "address",
          "name": "makerToken",
          "type": "address"
        },
        {
          "indexed": false,
          "internalType": "uint256",
          "name": "makerAmount",
          "type": "uint256"
        },
        {
          "indexed": false,
          "internalType": "address",
          "name": "takerToken",
          "type": "address"
        },
        {
          "indexed": false,
          "internalType": "uint256",
          "name": "takerAmount",
          "type": "uint256"
        },
        {
          "indexed": false,
          "internalType": "uint256",
          "name": "stake",
          "type": "uint256"
        },
        {
          "indexed": false,
          "internalType": "uint256",
          "name": "expiry",
          "type": "uint256"
        },
        {
          "indexed": false,
          "internalType": "address",
          "name": "allowedTaker",
          "type": "address"
        }
      ],
      "name": "OfferCreated",
      "type": "event"
    },
    {
      "anonymous": false,
      "inputs": [
        {
          "indexed": true,
          "internalType": "uint256",
          "name": "offerId",
          "type": "uint256"
        }
      ],
      "name": "OfferReclaimed",
      "type": "event"
    },
    {
      "anonymous": false,
      "inputs": [
        {
          "indexed": true,
          "internalType": "uint256",
          "name": "offerId",
          "type": "uint256"
        },
        {
          "indexed": true,
          "internalType": "address",
          "name": "taker",
          "type": "address"
        },
        {
          "indexed": false,
          "internalType": "uint256",
          "name": "makerReceived",
          "type": "uint256"
        },
        {
          "indexed": false,
          "internalType": "uint256",
          "name": "takerReceived",
          "type": "uint256"
        },
        {
          "indexed": false,
          "internalType": "uint256",
          "name": "platformFee",
          "type": "uint256"
        }
      ],
      "name": "OfferSettled",
      "type": "event"
    },
    {
      "anonymous": false,
      "inputs": [
        {
          "indexed": true,
          "internalType": "address",
          "name": "previousOwner",
          "type": "address"
        },
        {
          "indexed": true,
          "internalType": "address",
          "name": "newOwner",
          "type": "address"
        }
      ],
      "name": "OwnershipTransferred",
      "type": "event"
    },
    {
      "anonymous": false,
      "inputs": [
        {
          "indexed": false,
          "internalType": "uint256",
          "name": "oldBps",
          "type": "uint256"
        },
        {
          "indexed": false,
          "internalType": "uint256",
          "name": "newBps",
          "type": "uint256"
        }
      ],
      "name": "PlatformFeeUpdated",
      "type": "event"
    },
    {
      "inputs": [],
      "name": "CANCEL_COOLDOWN",
      "outputs": [
        {
          "internalType": "uint256",
          "name": "",
          "type": "uint256"
        }
      ],
      "stateMutability": "view",
      "type": "function"
    },
    {
      "inputs": [],
      "name": "MAX_FEE_BPS",
      "outputs": [
        {
          "internalType": "uint256",
          "name": "",
          "type": "uint256"
        }
      ],
      "stateMutability": "view",
      "type": "function"
    },
    {
      "inputs": [],
      "name": "MIN_EXPIRY_DURATION",
      "outputs": [
        {
          "internalType": "uint256",
          "name": "",
          "type": "uint256"
        }
      ],
      "stateMutability": "view",
      "type": "function"
    },
    {
      "inputs": [
        {
          "internalType": "uint256",
          "name": "offerId",
          "type": "uint256"
        }
      ],
      "name": "acceptOffer",
      "outputs": [],
      "stateMutability": "payable",
      "type": "function"
    },
    {
      "inputs": [],
      "name": "accumulatedFees",
      "outputs": [
        {
          "internalType": "uint256",
          "name": "",
          "type": "uint256"
        }
      ],
      "stateMutability": "view",
      "type": "function"
    },
    {
      "inputs": [
        {
          "internalType": "address",
          "name": "makerToken",
          "type": "address"
        },
        {
          "internalType": "uint256",
          "name": "makerAmount",
          "type": "uint256"
        },
        {
          "internalType": "address",
          "name": "takerToken",
          "type": "address"
        },
        {
          "internalType": "uint256",
          "name": "takerAmount",
          "type": "uint256"
        },
        {
          "internalType": "uint256",
          "name": "expiry",
          "type": "uint256"
        },
        {
          "internalType": "address",
          "name": "allowedTaker",
          "type": "address"
        }
      ],
      "name": "createOffer",
      "outputs": [],
      "stateMutability": "payable",
      "type": "function"
    },
    {
      "inputs": [],
      "name": "feeRecipient",
      "outputs": [
        {
          "internalType": "address",
          "name": "",
          "type": "address"
        }
      ],
      "stateMutability": "view",
      "type": "function"
    },
    {
      "inputs": [
        {
          "internalType": "uint256",
          "name": "offerId",
          "type": "uint256"
        }
      ],
      "name": "finalizeCancel",
      "outputs": [],
      "stateMutability": "nonpayable",
      "type": "function"
    },
    {
      "inputs": [],
      "name": "getActiveOffers",
      "outputs": [
        {
          "internalType": "uint256[]",
          "name": "ids",
          "type": "uint256[]"
        },
        {
          "components": [
            {
              "internalType": "address",
              "name": "maker",
              "type": "address"
            },
            {
              "internalType": "address",
              "name": "makerToken",
              "type": "address"
            },
            {
              "internalType": "uint256",
              "name": "makerAmount",
              "type": "uint256"
            },
            {
              "internalType": "address",
              "name": "takerToken",
              "type": "address"
            },
            {
              "internalType": "uint256",
              "name": "takerAmount",
              "type": "uint256"
            },
            {
              "internalType": "uint256",
              "name": "stake",
              "type": "uint256"
            },
            {
              "internalType": "uint256",
              "name": "expiry",
              "type": "uint256"
            },
            {
              "internalType": "uint256",
              "name": "cancelRequestedAt",
              "type": "uint256"
            },
            {
              "internalType": "address",
              "name": "allowedTaker",
              "type": "address"
            },
            {
              "internalType": "address",
              "name": "taker",
              "type": "address"
            },
            {
              "internalType": "enum TektonEscrow.OfferStatus",
              "name": "status",
              "type": "uint8"
            }
          ],
          "internalType": "struct TektonEscrow.Offer[]",
          "name": "activeOffers",
          "type": "tuple[]"
        }
      ],
      "stateMutability": "view",
      "type": "function"
    },
    {
      "inputs": [
        {
          "internalType": "uint256",
          "name": "offset",
          "type": "uint256"
        },
        {
          "internalType": "uint256",
          "name": "limit",
          "type": "uint256"
        }
      ],
      "name": "getActiveOffersPaginated",
      "outputs": [
        {
          "internalType": "uint256[]",
          "name": "ids",
          "type": "uint256[]"
        },
        {
          "components": [
            {
              "internalType": "address",
              "name": "maker",
              "type": "address"
            },
            {
              "internalType": "address",
              "name": "makerToken",
              "type": "address"
            },
            {
              "internalType": "uint256",
              "name": "makerAmount",
              "type": "uint256"
            },
            {
              "internalType": "address",
              "name": "takerToken",
              "type": "address"
            },
            {
              "internalType": "uint256",
              "name": "takerAmount",
              "type": "uint256"
            },
            {
              "internalType": "uint256",
              "name": "stake",
              "type": "uint256"
            },
            {
              "internalType": "uint256",
              "name": "expiry",
              "type": "uint256"
            },
            {
              "internalType": "uint256",
              "name": "cancelRequestedAt",
              "type": "uint256"
            },
            {
              "internalType": "address",
              "name": "allowedTaker",
              "type": "address"
            },
            {
              "internalType": "address",
              "name": "taker",
              "type": "address"
            },
            {
              "internalType": "enum TektonEscrow.OfferStatus",
              "name": "status",
              "type": "uint8"
            }
          ],
          "internalType": "struct TektonEscrow.Offer[]",
          "name": "activeOffers",
          "type": "tuple[]"
        },
        {
          "internalType": "uint256",
          "name": "totalActive",
          "type": "uint256"
        }
      ],
      "stateMutability": "view",
      "type": "function"
    },
    {
      "inputs": [
        {
          "internalType": "uint256",
          "name": "offerId",
          "type": "uint256"
        }
      ],
      "name": "getOffer",
      "outputs": [
        {
          "components": [
            {
              "internalType": "address",
              "name": "maker",
              "type": "address"
            },
            {
              "internalType": "address",
              "name": "makerToken",
              "type": "address"
            },
            {
              "internalType": "uint256",
              "name": "makerAmount",
              "type": "uint256"
            },
            {
              "internalType": "address",
              "name": "takerToken",
              "type": "address"
            },
            {
              "internalType": "uint256",
              "name": "takerAmount",
              "type": "uint256"
            },
            {
              "internalType": "uint256",
              "name": "stake",
              "type": "uint256"
            },
            {
              "internalType": "uint256",
              "name": "expiry",
              "type": "uint256"
            },
            {
              "internalType": "uint256",
              "name": "cancelRequestedAt",
              "type": "uint256"
            },
            {
              "internalType": "address",
              "name": "allowedTaker",
              "type": "address"
            },
            {
              "internalType": "address",
              "name": "taker",
              "type": "address"
            },
            {
              "internalType": "enum TektonEscrow.OfferStatus",
              "name": "status",
              "type": "uint8"
            }
          ],
          "internalType": "struct TektonEscrow.Offer",
          "name": "",
          "type": "tuple"
        }
      ],
      "stateMutability": "view",
      "type": "function"
    },
    {
      "inputs": [
        {
          "internalType": "address",
          "name": "user",
          "type": "address"
        }
      ],
      "name": "getProfile",
      "outputs": [
        {
          "components": [
            {
              "internalType": "uint256",
              "name": "tradesCompleted",
              "type": "uint256"
            },
            {
              "internalType": "uint256",
              "name": "totalVolume",
              "type": "uint256"
            },
            {
              "internalType": "uint256",
              "name": "offersCancelled",
              "type": "uint256"
            },
            {
              "internalType": "uint256",
              "name": "offersExpired",
              "type": "uint256"
            },
            {
              "internalType": "uint256",
              "name": "firstTradeAt",
              "type": "uint256"
            }
          ],
          "internalType": "struct TektonEscrow.TraderProfile",
          "name": "",
          "type": "tuple"
        }
      ],
      "stateMutability": "view",
      "type": "function"
    },
    {
      "inputs": [
        {
          "internalType": "address",
          "name": "user",
          "type": "address"
        }
      ],
      "name": "getReliabilityScore",
      "outputs": [
        {
          "internalType": "uint256",
          "name": "",
          "type": "uint256"
        }
      ],
      "stateMutability": "view",
      "type": "function"
    },
    {
      "inputs": [
        {
          "internalType": "address",
          "name": "user",
          "type": "address"
        }
      ],
      "name": "getUserOffers",
      "outputs": [
        {
          "internalType": "uint256[]",
          "name": "",
          "type": "uint256[]"
        }
      ],
      "stateMutability": "view",
      "type": "function"
    },
    {
      "inputs": [],
      "name": "minStake",
      "outputs": [
        {
          "internalType": "uint256",
          "name": "",
          "type": "uint256"
        }
      ],
      "stateMutability": "view",
      "type": "function"
    },
    {
      "inputs": [],
      "name": "nextOfferId",
      "outputs": [
        {
          "internalType": "uint256",
          "name": "",
          "type": "uint256"
        }
      ],
      "stateMutability": "view",
      "type": "function"
    },
    {
      "inputs": [
        {
          "internalType": "uint256",
          "name": "",
          "type": "uint256"
        }
      ],
      "name": "offers",
      "outputs": [
        {
          "internalType": "address",
          "name": "maker",
          "type": "address"
        },
        {
          "internalType": "address",
          "name": "makerToken",
          "type": "address"
        },
        {
          "internalType": "uint256",
          "name": "makerAmount",
          "type": "uint256"
        },
        {
          "internalType": "address",
          "name": "takerToken",
          "type": "address"
        },
        {
          "internalType": "uint256",
          "name": "takerAmount",
          "type": "uint256"
        },
        {
          "internalType": "uint256",
          "name": "stake",
          "type": "uint256"
        },
        {
          "internalType": "uint256",
          "name": "expiry",
          "type": "uint256"
        },
        {
          "internalType": "uint256",
          "name": "cancelRequestedAt",
          "type": "uint256"
        },
        {
          "internalType": "address",
          "name": "allowedTaker",
          "type": "address"
        },
        {
          "internalType": "address",
          "name": "taker",
          "type": "address"
        },
        {
          "internalType": "enum TektonEscrow.OfferStatus",
          "name": "status",
          "type": "uint8"
        }
      ],
      "stateMutability": "view",
      "type": "function"
    },
    {
      "inputs": [],
      "name": "owner",
      "outputs": [
        {
          "internalType": "address",
          "name": "",
          "type": "address"
        }
      ],
      "stateMutability": "view",
      "type": "function"
    },
    {
      "inputs": [],
      "name": "platformFeeBps",
      "outputs": [
        {
          "internalType": "uint256",
          "name": "",
          "type": "uint256"
        }
      ],
      "stateMutability": "view",
      "type": "function"
    },
    {
      "inputs": [
        {
          "internalType": "address",
          "name": "",
          "type": "address"
        }
      ],
      "name": "profiles",
      "outputs": [
        {
          "internalType": "uint256",
          "name": "tradesCompleted",
          "type": "uint256"
        },
        {
          "internalType": "uint256",
          "name": "totalVolume",
          "type": "uint256"
        },
        {
          "internalType": "uint256",
          "name": "offersCancelled",
          "type": "uint256"
        },
        {
          "internalType": "uint256",
          "name": "offersExpired",
          "type": "uint256"
        },
        {
          "internalType": "uint256",
          "name": "firstTradeAt",
          "type": "uint256"
        }
      ],
      "stateMutability": "view",
      "type": "function"
    },
    {
      "inputs": [
        {
          "internalType": "uint256",
          "name": "offerId",
          "type": "uint256"
        }
      ],
      "name": "reclaimExpired",
      "outputs": [],
      "stateMutability": "nonpayable",
      "type": "function"
    },
    {
      "inputs": [],
      "name": "renounceOwnership",
      "outputs": [],
      "stateMutability": "nonpayable",
      "type": "function"
    },
    {
      "inputs": [
        {
          "internalType": "uint256",
          "name": "offerId",
          "type": "uint256"
        }
      ],
      "name": "requestCancel",
      "outputs": [],
      "stateMutability": "nonpayable",
      "type": "function"
    },
    {
      "inputs": [
        {
          "internalType": "address",
          "name": "_recipient",
          "type": "address"
        }
      ],
      "name": "setFeeRecipient",
      "outputs": [],
      "stateMutability": "nonpayable",
      "type": "function"
    },
    {
      "inputs": [
        {
          "internalType": "uint256",
          "name": "_minStake",
          "type": "uint256"
        }
      ],
      "name": "setMinStake",
      "outputs": [],
      "stateMutability": "nonpayable",
      "type": "function"
    },
    {
      "inputs": [
        {
          "internalType": "uint256",
          "name": "_bps",
          "type": "uint256"
        }
      ],
      "name": "setPlatformFee",
      "outputs": [],
      "stateMutability": "nonpayable",
      "type": "function"
    },
    {
      "inputs": [
        {
          "internalType": "address",
          "name": "newOwner",
          "type": "address"
        }
      ],
      "name": "transferOwnership",
      "outputs": [],
      "stateMutability": "nonpayable",
      "type": "function"
    },
    {
      "inputs": [
        {
          "internalType": "address",
          "name": "",
          "type": "address"
        },
        {
          "internalType": "uint256",
          "name": "",
          "type": "uint256"
        }
      ],
      "name": "userOfferIds",
      "outputs": [
        {
          "internalType": "uint256",
          "name": "",
          "type": "uint256"
        }
      ],
      "stateMutability": "view",
      "type": "function"
    },
    {
      "inputs": [],
      "name": "withdrawFees",
      "outputs": [],
      "stateMutability": "nonpayable",
      "type": "function"
    },
    {
      "stateMutability": "payable",
      "type": "receive"
    }
  ],
  "bytecode": "0x608060405234801561001057600080fd5b50604051612ab5380380612ab583398101604081905261002f9161017e565b6001600055338061005b57604051631e4fbdf760e01b8152600060048201526024015b60405180910390fd5b6100648161012c565b506101f48211156100a95760405162461bcd60e51b815260206004820152600f60248201526e046656520657863656564732063617608c1b6044820152606401610052565b6001600160a01b0381166100ff5760405162461bcd60e51b815260206004820152601560248201527f496e76616c69642066656520726563697069656e7400000000000000000000006044820152606401610052565b600692909255600755600880546001600160a01b0319166001600160a01b039092169190911790556101c4565b600180546001600160a01b038381166001600160a01b0319831681179093556040519116919082907f8be0079c531659141344cd1fd0a4f28419497f9722a3daafe3b4186f6b6457e090600090a35050565b60008060006060848603121561019357600080fd5b83516020850151604086015191945092506001600160a01b03811681146101b957600080fd5b809150509250925092565b6128e2806101d36000396000f3fe6080604052600436106101c65760003560e01c806363ace9b6116100f7578063bbe1562711610095578063e74b981b11610064578063e74b981b146105e6578063eec3b1df14610606578063f2fde38b14610635578063fbefbb5e1461065557600080fd5b8063bbe156271461052a578063c815729d1461059d578063d55be8c6146105b0578063e683a2d4146105c657600080fd5b80637ff118ef116100d15780637ff118ef146104265780638a72ea6a146104495780638c80fd90146104ec5780638da5cb5b1461050c57600080fd5b806363ace9b6146103c4578063661d2c2c146103e4578063715018a61461041157600080fd5b8063375b3c0a11610164578063476343ee1161013e578063476343ee146103635780634cb6157e14610378578063587f5ed7146103985780635f5d0655146103ae57600080fd5b8063375b3c0a146102e85780634579268a146102fe578063469048401461032b57600080fd5b806312e8e2c3116101a057806312e8e2c31461027f57806322dcd13e1461029f5780632df894c5146102b557806330825b51146102c857600080fd5b806301bb9baa146101d25780630b44b73a146101f45780630f53a4701461021d57600080fd5b366101cd57005b600080fd5b3480156101de57600080fd5b506101f26101ed3660046123ff565b61066b565b005b34801561020057600080fd5b5061020a61465081565b6040519081526020015b60405180910390f35b34801561022957600080fd5b5061023d610238366004612434565b610858565b6040516102149190600060a082019050825182526020830151602083015260408301516040830152606083015160608301526080830151608083015292915050565b34801561028b57600080fd5b506101f261029a3660046123ff565b6108df565b3480156102ab57600080fd5b5061020a60075481565b6101f26102c3366004612456565b61096c565b3480156102d457600080fd5b5061020a6102e3366004612434565b610dfa565b3480156102f457600080fd5b5061020a60065481565b34801561030a57600080fd5b5061031e6103193660046123ff565b610f56565b60405161021491906125b0565b34801561033757600080fd5b5060085461034b906001600160a01b031681565b6040516001600160a01b039091168152602001610214565b34801561036f57600080fd5b506101f261102b565b34801561038457600080fd5b5061020a6103933660046125c5565b611172565b3480156103a457600080fd5b5061020a60095481565b3480156103ba57600080fd5b5061020a60025481565b3480156103d057600080fd5b506101f26103df3660046123ff565b6111a3565b3480156103f057600080fd5b506104046103ff366004612434565b6113e1565b604051610214919061262b565b34801561041d57600080fd5b506101f261144d565b34801561043257600080fd5b5061043b61145f565b60405161021492919061267c565b34801561045557600080fd5b506104d56104643660046123ff565b600360208190526000918252604090912080546001820154600283015493830154600484015460058501546006860154600787015460088801546009909801546001600160a01b0397881699968816989697958616969495939492939192821691811690600160a01b900460ff168b565b6040516102149b9a999897969594939291906126aa565b3480156104f857600080fd5b506101f26105073660046123ff565b6116f4565b34801561051857600080fd5b506001546001600160a01b031661034b565b34801561053657600080fd5b50610575610545366004612434565b60046020819052600091825260409091208054600182015460028301546003840154939094015491939092909185565b604080519586526020860194909452928401919091526060830152608082015260a001610214565b6101f26105ab3660046123ff565b61173d565b3480156105bc57600080fd5b5061020a6101f481565b3480156105d257600080fd5b506101f26105e13660046123ff565b611bb8565b3480156105f257600080fd5b506101f2610601366004612434565b611cce565b34801561061257600080fd5b5061062661062136600461271e565b611d89565b60405161021493929190612740565b34801561064157600080fd5b506101f2610650366004612434565b612089565b34801561066157600080fd5b5061020a610e1081565b6106736120c4565b600081815260036020526040902080546001600160a01b031633146106b35760405162461bcd60e51b81526004016106aa90612776565b60405180910390fd5b60006009820154600160a01b900460ff1660038111156106d5576106d56124b5565b146106f25760405162461bcd60e51b81526004016106aa9061279d565b80600601544210156107385760405162461bcd60e51b815260206004820152600f60248201526e139bdd081e595d08195e1c1a5c9959608a1b60448201526064016106aa565b60098101805460ff60a01b1916600360a01b17905580546001600160a01b03166000908152600460205260408120600301805491610775836127db565b909155505060018101548154600283015461079d926001600160a01b039081169216906120ee565b60058101541561081f57805460058201546040516000926001600160a01b031691908381818185875af1925050503d80600081146107f7576040519150601f19603f3d011682016040523d82523d6000602084013e6107fc565b606091505b505090508061081d5760405162461bcd60e51b81526004016106aa906127f4565b505b60405182907f1386a65506b9c5257b4958477c64c47c1a67954ae20d7b5fc6e61e52610fbb0890600090a2506108556001600055565b50565b61088a6040518060a0016040528060008152602001600081526020016000815260200160008152602001600081525090565b506001600160a01b0316600090815260046020818152604092839020835160a0810185528154815260018201549281019290925260028101549382019390935260038301546060820152910154608082015290565b6108e76121c1565b6101f481111561092b5760405162461bcd60e51b815260206004820152600f60248201526e046656520657863656564732063617608c1b60448201526064016106aa565b60075460408051918252602082018390527fd347e206f25a89b917fc9482f1a2d294d749baa4dc9bde7fb495ee11fe491643910160405180910390a1600755565b6109746120c4565b600085116109bb5760405162461bcd60e51b81526020600482015260146024820152734d616b657220616d6f756e74206973207a65726f60601b60448201526064016106aa565b60008311610a025760405162461bcd60e51b815260206004820152601460248201527354616b657220616d6f756e74206973207a65726f60601b60448201526064016106aa565b428211610a465760405162461bcd60e51b8152602060048201526012602482015271115e1c1a5c9e481a5b881d1a19481c185cdd60721b60448201526064016106aa565b610a52610e1042612821565b821015610aa15760405162461bcd60e51b815260206004820152601860248201527f45787069727920746f6f20736f6f6e20286d696e20316829000000000000000060448201526064016106aa565b836001600160a01b0316866001600160a01b031603610b025760405162461bcd60e51b815260206004820152601760248201527f43616e6e6f742074726164652073616d6520746f6b656e00000000000000000060448201526064016106aa565b6006546001600160a01b038716610b6957610b1d8187612821565b341015610b645760405162461bcd60e51b8152602060048201526015602482015274125b9cdd59999a58da595b9d08109510c81cd95b9d605a1b60448201526064016106aa565b610bc3565b80341015610bae5760405162461bcd60e51b8152602060048201526012602482015271496e73756666696369656e74207374616b6560701b60448201526064016106aa565b610bc36001600160a01b0388163330896121ee565b6002805460009182610bd4836127db565b919050559050604051806101600160405280336001600160a01b03168152602001896001600160a01b03168152602001888152602001876001600160a01b0316815260200186815260200183815260200185815260200160008152602001846001600160a01b0316815260200160006001600160a01b0316815260200160006003811115610c6457610c646124b5565b9052600082815260036020818152604092839020845181546001600160a01b03199081166001600160a01b039283161783559286015160018301805485169183169190911790559385015160028201556060850151818401805484169186169190911790556080850151600482015560a0850151600582015560c0850151600682015560e0850151600782015561010085015160088201805484169186169190911790556101208501516009820180549384169190951690811785556101408601519194919391926001600160a81b0319161790600160a01b908490811115610d4f57610d4f6124b5565b02179055505033600081815260056020908152604080832080546001810182559084529282902090920185905581516001600160a01b038d811682529181018c90528a821681840152606081018a90526080810187905260a0810189905290871660c0820152905191925083917f867ee64e9f8a090933b07cebd1ccda6008a9aea41f49c6fda98561aaad720b389181900360e00190a35050610df26001600055565b505050505050565b6001600160a01b0381166000908152600460208181526040808420815160a081018352815480825260018301549482019490945260028201549281018390526003820154606082018190529190940154608085015284929091610e5c91612821565b610e669190612821565b905080600003610e7a575060009392505050565b81516000908290610e8c906050612834565b610e96919061284b565b905060008084608001511115610ef457600062015180856080015142610ebc919061286d565b610ec6919061284b565b9050605a811015610eed57605a610ede82600a612834565b610ee8919061284b565b610ef0565b600a5b9150505b6000678ac7230489e80000905060008186602001511015610f3057818660200151600a610f219190612834565b610f2b919061284b565b610f33565b600a5b905080610f408486612821565b610f4a9190612821565b98975050505050505050565b610f5e6123a5565b60008281526003602081815260409283902083516101608101855281546001600160a01b0390811682526001830154811693820193909352600282015494810194909452808301548216606085015260048101546080850152600581015460a0850152600681015460c0850152600781015460e085015260088101548216610100850152600981015491821661012085015291610140840191600160a01b900460ff1690811115611011576110116124b5565b6003811115611022576110226124b5565b90525092915050565b6110336121c1565b61103b6120c4565b600954806110815760405162461bcd60e51b81526020600482015260136024820152724e6f206665657320746f20776974686472617760681b60448201526064016106aa565b600060098190556008546040516001600160a01b039091169083908381818185875af1925050503d80600081146110d4576040519150601f19603f3d011682016040523d82523d6000602084013e6110d9565b606091505b50509050806111225760405162461bcd60e51b8152602060048201526015602482015274119959481dda5d1a191c985dd85b0819985a5b1959605a1b60448201526064016106aa565b6008546040518381526001600160a01b03909116907fc0819c13be868895eb93e40eaceb96de976442fa1d404e5c55f14bb65a8c489a9060200160405180910390a250506111706001600055565b565b6005602052816000526040600020818154811061118e57600080fd5b90600052602060002001600091509150505481565b6111ab6120c4565b600081815260036020526040902080546001600160a01b031633146111e25760405162461bcd60e51b81526004016106aa90612776565b60006009820154600160a01b900460ff166003811115611204576112046124b5565b146112215760405162461bcd60e51b81526004016106aa9061279d565b600081600701541161126c5760405162461bcd60e51b815260206004820152601460248201527310d85b98d95b081b9bdd081c995c5d595cdd195960621b60448201526064016106aa565b614650816007015461127e9190612821565b4210156112c45760405162461bcd60e51b815260206004820152601460248201527310dbdbdb191bdddb881b9bdd08195b185c1cd95960621b60448201526064016106aa565b60098101805460ff60a01b1916600160a11b17905580546001600160a01b03166000908152600460205260408120600201805491611301836127db565b9091555050600181015481546002830154611329926001600160a01b039081169216906120ee565b6005810154156113ab57805460058201546040516000926001600160a01b031691908381818185875af1925050503d8060008114611383576040519150601f19603f3d011682016040523d82523d6000602084013e611388565b606091505b50509050806113a95760405162461bcd60e51b81526004016106aa906127f4565b505b60405182907f01adacf44945c2451f5aea8eb00bb6db60d8c0e5a545f2beb57f71241d555fc090600090a2506108556001600055565b6001600160a01b03811660009081526005602090815260409182902080548351818402810184019094528084526060939283018282801561144157602002820191906000526020600020905b81548152602001906001019080831161142d575b50505050509050919050565b6114556121c1565b6111706000612255565b6060806000805b6002548110156114d6576000818152600360208190526040822060090154600160a01b900460ff169081111561149e5761149e6124b5565b1480156114bb575060008181526003602052604090206006015442105b156114ce57816114ca816127db565b9250505b600101611466565b508067ffffffffffffffff8111156114f0576114f0612880565b604051908082528060200260200182016040528015611519578160200160208202803683370190505b5092508067ffffffffffffffff81111561153557611535612880565b60405190808252806020026020018201604052801561156e57816020015b61155b6123a5565b8152602001906001900390816115535790505b5091506000805b6002548110156116ed576000818152600360208190526040822060090154600160a01b900460ff16908111156115ad576115ad6124b5565b1480156115ca575060008181526003602052604090206006015442105b156116e557808583815181106115e2576115e2612896565b6020908102919091018101919091526000828152600380835260409182902082516101608101845281546001600160a01b0390811682526001830154811695820195909552600282015493810193909352808201548416606084015260048101546080840152600581015460a0840152600681015460c0840152600781015460e08401526008810154841661010084015260098101549384166101208401529192610140840191600160a01b90910460ff16908111156116a4576116a46124b5565b60038111156116b5576116b56124b5565b815250508483815181106116cb576116cb612896565b602002602001018190525081806116e1906127db565b9250505b600101611575565b5050509091565b6116fc6121c1565b60065460408051918252602082018390527f171aabb8815c02fd00303450a77058600e3661eb75ce2e77972c0f080bc7099d910160405180910390a1600655565b6117456120c4565b6000818152600360205260408120906009820154600160a01b900460ff166003811115611774576117746124b5565b146117915760405162461bcd60e51b81526004016106aa9061279d565b806006015442106117d45760405162461bcd60e51b815260206004820152600d60248201526c13d999995c88195e1c1a5c9959609a1b60448201526064016106aa565b8054336001600160a01b039091160361182f5760405162461bcd60e51b815260206004820152601760248201527f43616e6e6f7420616363657074206f776e206f6666657200000000000000000060448201526064016106aa565b60088101546001600160a01b03161580611855575060088101546001600160a01b031633145b6118955760405162461bcd60e51b81526020600482015260116024820152702737ba1030b63637bbb2b2103a30b5b2b960791b60448201526064016106aa565b60038101546001600160a01b03166118f35780600401543410156118ee5760405162461bcd60e51b815260206004820152601060248201526f496e73756666696369656e742042544360801b60448201526064016106aa565b611916565b60048101546003820154611916916001600160a01b0390911690339030906121ee565b6000612710600754836004015461192d9190612834565b611937919061284b565b9050600061271060075484600201546119509190612834565b61195a919061284b565b9050600082846004015461196e919061286d565b90506000828560020154611982919061286d565b600986018054600160a01b6001600160a81b031990911660ff60a01b1933161717905560006007870155855460028701549192506119cb916001600160a01b03909116906122a7565b6119d93386600401546122a7565b3360009081526005602090815260408220805460018101825590835291200186905560038501546001600160a01b0316611a2a578360096000828254611a1f9190612821565b90915550611a4f9050565b8315611a4f576008546003860154611a4f916001600160a01b03918216911686612303565b60018501546001600160a01b0316611a7e578260096000828254611a739190612821565b90915550611aa39050565b8215611aa3576008546001860154611aa3916001600160a01b03918216911685612303565b60038501548554611ac1916001600160a01b039081169116846120ee565b6001850154611ada906001600160a01b031633836120ee565b600585015415611b5c57845460058601546040516000926001600160a01b031691908381818185875af1925050503d8060008114611b34576040519150601f19603f3d011682016040523d82523d6000602084013e611b39565b606091505b5050905080611b5a5760405162461bcd60e51b81526004016106aa906127f4565b505b33867fc97501d466b805bd8b9b30d3a2ece013ec4c62565200afc0b67b1f9957e7004c8484611b8b888a612821565b6040805193845260208401929092529082015260600160405180910390a350505050506108556001600055565b600081815260036020526040902080546001600160a01b03163314611bef5760405162461bcd60e51b81526004016106aa90612776565b60006009820154600160a01b900460ff166003811115611c1157611c116124b5565b14611c2e5760405162461bcd60e51b81526004016106aa9061279d565b600781015415611c805760405162461bcd60e51b815260206004820152601860248201527f43616e63656c20616c726561647920726571756573746564000000000000000060448201526064016106aa565b428160070181905550817fb88c15c6125137b9c4189e52e198791ebf39b71163dd4cf1a1be29b28cce4b6361465042611cb99190612821565b60405190815260200160405180910390a25050565b611cd66121c1565b6001600160a01b038116611d205760405162461bcd60e51b8152602060048201526011602482015270125b9d985b1a59081c9958da5c1a595b9d607a1b60448201526064016106aa565b600854604080516001600160a01b03928316815291831660208301527faaebcf1bfa00580e41d966056b48521fa9f202645c86d4ddf28113e617c1b1d3910160405180910390a1600880546001600160a01b0319166001600160a01b0392909216919091179055565b6060806000805b600254811015611e00576000818152600360208190526040822060090154600160a01b900460ff1690811115611dc857611dc86124b5565b148015611de5575060008181526003602052604090206006015442105b15611df85781611df4816127db565b9250505b600101611d90565b506000818611611e105785611e12565b815b90506000611e20828461286d565b90506000868210611e315786611e33565b815b90508067ffffffffffffffff811115611e4e57611e4e612880565b604051908082528060200260200182016040528015611e77578160200160208202803683370190505b5095508067ffffffffffffffff811115611e9357611e93612880565b604051908082528060200260200182016040528015611ecc57816020015b611eb96123a5565b815260200190600190039081611eb15790505b50945060008060005b60025481108015611ee557508382105b1561207c576000818152600360208190526040822060090154600160a01b900460ff1690811115611f1857611f186124b5565b148015611f35575060008181526003602052604090206006015442105b1561206a5785831015611f545782611f4c816127db565b93505061206a565b80898381518110611f6757611f67612896565b6020908102919091018101919091526000828152600380835260409182902082516101608101845281546001600160a01b0390811682526001830154811695820195909552600282015493810193909352808201548416606084015260048101546080840152600581015460a0840152600681015460c0840152600781015460e08401526008810154841661010084015260098101549384166101208401529192610140840191600160a01b90910460ff1690811115612029576120296124b5565b600381111561203a5761203a6124b5565b8152505088838151811061205057612050612896565b60200260200101819052508180612066906127db565b9250505b80612074816127db565b915050611ed5565b5050505050509250925092565b6120916121c1565b6001600160a01b0381166120bb57604051631e4fbdf760e01b8152600060048201526024016106aa565b61085581612255565b6002600054036120e757604051633ee5aeb560e01b815260040160405180910390fd5b6002600055565b806000036120fb57505050565b6001600160a01b0383166121a8576000826001600160a01b03168260405160006040518083038185875af1925050503d8060008114612156576040519150601f19603f3d011682016040523d82523d6000602084013e61215b565b606091505b50509050806121a25760405162461bcd60e51b8152602060048201526013602482015272109510c81d1c985b9cd9995c8819985a5b1959606a1b60448201526064016106aa565b50505050565b6121bc6001600160a01b0384168383612303565b505050565b6001546001600160a01b031633146111705760405163118cdaa760e01b81523360048201526024016106aa565b6040516001600160a01b0384811660248301528381166044830152606482018390526121a29186918216906323b872dd906084015b604051602081830303815290604052915060e01b6020820180516001600160e01b038381831617835250505050612334565b600180546001600160a01b038381166001600160a01b0319831681179093556040519116919082907f8be0079c531659141344cd1fd0a4f28419497f9722a3daafe3b4186f6b6457e090600090a35050565b6001600160a01b03821660009081526004602052604081208054909182906122ce836127db565b9190505550818160010160008282546122e79190612821565b909155505060048101546000036121bc57426004820155505050565b6040516001600160a01b038381166024830152604482018390526121bc91859182169063a9059cbb90606401612223565b600080602060008451602086016000885af180612357576040513d6000823e3d81fd5b50506000513d9150811561236f57806001141561237c565b6001600160a01b0384163b155b156121a257604051635274afe760e01b81526001600160a01b03851660048201526024016106aa565b6040805161016081018252600080825260208201819052918101829052606081018290526080810182905260a0810182905260c0810182905260e08101829052610100810182905261012081018290529061014082015290565b60006020828403121561241157600080fd5b5035919050565b80356001600160a01b038116811461242f57600080fd5b919050565b60006020828403121561244657600080fd5b61244f82612418565b9392505050565b60008060008060008060c0878903121561246f57600080fd5b61247887612418565b95506020870135945061248d60408801612418565b935060608701359250608087013591506124a960a08801612418565b90509295509295509295565b634e487b7160e01b600052602160045260246000fd5b600481106124e957634e487b7160e01b600052602160045260246000fd5b9052565b80516001600160a01b03168252602081015161251460208401826001600160a01b03169052565b5060408101516040830152606081015161253960608401826001600160a01b03169052565b506080810151608083015260a081015160a083015260c081015160c083015260e081015160e083015261010081015161257e6101008401826001600160a01b03169052565b5061012081015161259b6101208401826001600160a01b03169052565b506101408101516121bc6101408401826124cb565b61016081016125bf82846124ed565b92915050565b600080604083850312156125d857600080fd5b6125e183612418565b946020939093013593505050565b600081518084526020840193506020830160005b82811015612621578151865260209586019590910190600101612603565b5093949350505050565b60208152600061244f60208301846125ef565b600081518084526020840193506020830160005b82811015612621576126658683516124ed565b610160959095019460209190910190600101612652565b60408152600061268f60408301856125ef565b82810360208401526126a1818561263e565b95945050505050565b6001600160a01b038c811682528b81166020830152604082018b905289811660608301526080820189905260a0820188905260c0820187905260e082018690528481166101008301528316610120820152610160810161270e6101408301846124cb565b9c9b505050505050505050505050565b6000806040838503121561273157600080fd5b50508035926020909101359150565b60608152600061275360608301866125ef565b8281036020840152612765818661263e565b915050826040830152949350505050565b6020808252600d908201526c2737ba103a34329036b0b5b2b960991b604082015260600190565b6020808252600e908201526d27b33332b9103737ba1037b832b760911b604082015260600190565b634e487b7160e01b600052601160045260246000fd5b6000600182016127ed576127ed6127c5565b5060010190565b60208082526013908201527214dd185ad9481c99599d5b990819985a5b1959606a1b604082015260600190565b808201808211156125bf576125bf6127c5565b80820281158282048414176125bf576125bf6127c5565b60008261286857634e487b7160e01b600052601260045260246000fd5b500490565b818103818111156125bf576125bf6127c5565b634e487b7160e01b600052604160045260246000fd5b634e487b7160e01b600052603260045260246000fdfea26469706673582212206d36407b007df750ef27ba6e39135b58e62f45290768985749c4dc63f50726d764736f6c634300081c0033",
  "linkReferences": {},
  "deployedLinkReferences": {}
}